:1000000002308A000E2A00000A108A100A118207A4
:1000100028340F34013406340C104937E931E93003
:100020006E326F172E1700000C10CC326E326F1725
:100030002E1700014131E131EF3AA039E53A203A7B
:10004000E536F037800E4539F23720376110D6306B
:10005000EC34E430E330EF100001D3326D10F232B3
:100060007338EF39F43020326F008A396537F3374F
:1000700072004B3084008313000803194C280630AB
:10008000F800F701F70B4228F80B41287B30F70006
:10009000F70B4828800B3F280800521851280812F7
:1000A00052280816831608128312D218592888126B
:1000B0005A28881683168812831252196128081349
:1000C00062280817831608138312D2196928881327
:1000D0006A28881783168813081083120814831659
:1000E00008108312081008008316881083128810E5
:1000F000CF08031D7D2888107E2888148316881059
:10010000A630F700F70B82280000081083120810B1
:10011000500ED1000F30D1055108D2004D205008AB
:100120000F39D100D2004D20080083160812831227
:1001300008128316881283128812831608138312FA
:10014000081383168813831288138316881083126A
:10015000881083160810831208100F30CB00392046
:100160000130C7004708033C031CBE280330D200FF
:100170004D200530CB003920C70AB2280230D2000A
:100180004D20C7014708033C031CCF284708042023
:10019000C800CF014808D0007420C70AC2288A11BD
:1001A0000A12552A4A080C3A0319E028063A03199C
:1001B000E828073A0319E828053A0319FE28032915
:1001C000CF010130D00074200230CB003920082943
:1001D0000130CB000230CC004C0BEF28F22840302D
:1001E000CD00F328CD0101304B02CD074D088038FA
:1001F000CE00CF014E08D00074200829CF01103066
:10020000D000742008290130CF004A08D0007420A3
:1002100008000B08C7008B13831603178C170C14E8
:100220000000000083120313C71B8B1703170C0871
:100230007F3903195D290313C70003170D08031342
:10024000C80003170F080313C9004708CA00D220CB
:10025000480803178D000313490803178F00031381
:100260000B08CA008B13831603178C170C1400009D
:10027000000083120313CA1B8B1703170C0D0E0DFE
:100280007F3903195D290313C70003170D080313F2
:10029000C80003170F080313C9004708CA00D2207B
:1002A000480803178D000313490803178F008D0AB0
:1002B00003198F0A03130929031703130800831670
:1002C0000612831206121230CB0039200616203097
:1002D000F700F70B69296C290000831606168312B4
:1002E0008A110A127F2A4230F700F70B75290000A5
:1002F000061A8F298430F700F70B7C297F2900002C
:10030000061E8C295230F700F70B8429872900003C
:100310000130F80091298E290130C0009129023066
:10032000C0008A110A12802AC9013F1C9729C701FF
:100330004708073C031CE029C801061AAA29C80A75
:100340004808643C0318A6293F14AA29A729A8290C
:1003500000009D293130F700F70BAC29AF29061AB0
:10036000C2294708073CCA000130F7004A08F800D4
:100370000319BE290310F70DF80BBA297708FF3AC5
:10038000C905DE294708073CCA000130F7004A08C2
:10039000F8000319CF290310F70DF80BCB297708C4
:1003A000C904061EDE29C80A4808643C0318DA2975
:1003B0003F14DE29DB29DC290000D129C70A98294E
:1003C0004908F80008004808F80147020318EB291B
:1003D0004708F700F729F7010830C900C70DF70DE6
:1003E000480877020318F700F80DC90BEE2908003A
:1003F000800803190D2AC8010408C7004810831B90
:1004000048140008CA00D220470884008313481803
:100410008317840A0319850AF829080003081F397D
:100420008300C001BF1083161F149F141F159F1156
:1004300007309C00831354308312A0006530A10064
:100440006D30A2007030A3002030A4003D30A50024
:100450002030A6003030A700A8002E30A900303090
:10046000AA002030AB004330AC002030AD00AE001D
:10047000AF015530B0006D30B1006930B20064306A
:10048000B3002030B4003D30B5002030B60030302D
:10049000B700B8002E30B9003030BA002530BB00AC
:1004A0002030BC00BD00BE0195280A30CB003920A9
:1004B0000C3003178D0000308F0003130921043026
:1004C000C700FA30CB003920C70B612A831686108B
:1004D00008118312081183160811831208151430AD
:1004E00003178D0000308F00031309210430C7006B
:1004F000FA30CB003920C70B782A3F105F297329C7
:10050000F8080319202B94217808C3009421780857
:10051000C40094217808C10094217808C200942175
:100520007808C5003F1CA62A0C30CA00D2201A3019
:1005300003178D0000308F00031309210430C7001A
:10054000FA30CB003920C70BA02A1F2B44084307E1
:10055000410742074502031D0E2B4108C7000A3020
:10056000C800E32130307807A7004108C7000A30EF
:10057000C800E32130307707A80030304207AA00D6
:10058000DF30AB004308C7000A30C800E321303039
:100590007807B7004308C7000A30C800E3213030AD
:1005A0007707B80030304407BA000C30CA00D220B8
:1005B000203084008313F8210A30CB0039200A3020
:1005C000CA00D220303084008313F8210A30CB00D7
:1005D00039204308463C031CF22ABF18F22A023095
:1005E0008606BF1443084F3C0318FB2ABF1CFB2A96
:1005F00002308606BF108316081183120811C60147
:1006000046083B3C031C0D2B0430C700FA30CB00DE
:100610003920C70B062BC60A002B1F2B0C30CA0033
:10062000D220233003178D0000308F0003130921DF
:100630000430C700FA30CB003920C70B1A2B382BF7
:100640000C30CA00D2202D3003178D0000308F00EF
:1006500003130921353003178D0000308F00031379
:1006600009210430C700FA30CB003920C70B332BE7
:040670006B2A63008E
:02400E00723FFF
:00000001FF
;PIC16F877A
;CRC=124B  CREATED="13-out-22 01:49"
